:100090003F065B4F666D7D077F6FFEFDFBF7EFDF71
:0200A000BF7F20
:0700AE00AE071FEE70FA22FD
:10007B00AD07AF051DEF600C7FF51200AE7FF512DB
:05008B0000AE80EE2232
:04004900AC05AB0750
:10004D00E4FAEAC39C5026E4F5A0D281C281EA2BE2
:10005D0090009A93F5A0D280C28074082AF8E6F534
:0D006D00A0D281C2817F0212007B0A80D5E3
:01007A002263
:10000300E4F9D290D2912090127F0A12007B2090C3
:100013000A3090FDE9C394095001092091127F0A27
:1000230012007B20910A3091FDE9D394004001191D
:10003300E975F00A84E5F090009093F5087D01E4FA
:06004300FF12004980C01D
:030000000200A259
:0C00A200787FE4F6D8FD75810F020003A2
:00000001FF
