:08010700006C928244281000F4
:0A00F40008080102040810204080F3
:1000D600E4FEC291EF339292EF25E0FFD2910EBE7D
:0200E60008F020
:0100E80022F5
:0800FF001200D6AF050200D685
:06010F00D29000C2902214
:1000BE00E4FEC2A1EF3392A0EF25E0FFD2A10EBE67
:0700CE0008F0D2A200C2A25B
:0100D5002208
:0B00E900EF1FAC0670011E4C70F622E9
:10008F00E4FB74082BF8E6FF1200BEEB9001079318
:10009F00F4FF7DFF1200FF12010F7F647E0012003C
:0F00AF00E97FFF1200FF12010F0BBB08D580D1B4
:03000000020003F8
:0C000300787FE4F6D8FD75810F02004AFA
:10000F0002008FE493A3F8E493A34003F68001F278
:10001F0008DFF48029E493A3F85407240CC8C333F2
:10002F00C4540F4420C8834004F456800146F6DFC1
:10003F00E4800B01020408102040809000F4E47E5D
:10004F00019360BCA3FF543F30E509541FFEE493B6
:10005F00A360010ECF54C025E060A840B8E493A37D
:10006F00FAE493A3F8E493A3C8C582C8CAC583CAA8
:10007F00F0A3C8C582C8CAC583CADFE9DEE780BE60
:0100FE000001
:00000001FF
