:10016500FEFDFBF7EFDFBF7F3F065B4F666D7D074B
:080175007F6F777C395E797120
:0B018900EF1FAC0670011E4C70F62248
:02011100A9073C
:10011300E4FBC3ED6480F8EB6480985044E4F5900D
:10012300D281C281E9FF3395E0FEEBF5823395E09E
:10013300F583E5822FFFE5833EFE74652FF5827418
:10014300013EF583E493F590D280C28074082BF8C6
:10015300E6F590D281C2817FC87E001201890B80AF
:01016300B1EA
:010164002278
:10008E000511E51170020510643245107019F51056
:10009E00F5110513E51370020512B4E80AE512B462
:1000AE000305E4F512F513AE12AF137C007D641256
:1000BE000003746D2FF58274013EF583E493F50809
:1000CE00AE12AF137C007D0A1200037C007D0A1273
:1000DE000003746D2DF58274013CF583E493F509EC
:1000EE00AE12AF137C007D0A120003746D2DF582E3
:1000FE0074013CF583E493F50A7D037F021201112E
:03010E0002008E5E
:0300000002017D7D
:0C017D00787FE4F6D8FD75811302008E37
:10000300C2D5EC30E709B2D5E4C39DFDE49CFCEE18
:1000130030E715B2D5E4C39FFFE49EFE120039C357
:10002300E49DFDE49CFC800312003930D507C3E452
:060033009FFFE49EFE2287
:10003900BC000BBE0029EF8DF084FFADF022E4CCAB
:10004900F875F008EF2FFFEE33FEEC33FCEE9DEC74
:10005900984005FCEE9DFE0FD5F0E9E4CEFD22EDBA
:10006900F8F5F0EE8420D21CFEADF075F008EF2F04
:10007900FFED33FD4007985006D5F0F222C398FDF5
:050089000FD5F0EA2292
:00000001FF
