:10011F003F065B4F666D7D077F6F777C395E797128
:08012F00FEFDFBF7EFDFBF7FCF
:0B014300EF1FAC0670011E4C70F6228E
:100003000511E51170020510E4FBAE10AF117C275A
:100013007D101200CA741F2FF58274013EF583E42C
:1000230093F508AE10AF117C037DE81200CA7C0083
:100033007D0A1200CA741F2DF58274013CF583E416
:1000430093F509AE10AF117C007D641200CA7C00E9
:100053007D0A1200CA741F2DF58274013CF583E4F6
:1000630093F50AAE10AF117C007D0A1200CA7C0022
:100073007D0A1200CA741F2DF58274013CF583E4D6
:10008300934480F50BAE10AF117C007D0A1200CAB9
:10009300741F2DF58274013CF583E493F50CEB900A
:1000A300012F93F580D2A0C2A074082BF8E6F58047
:1000B300D2A1C2A17FC87E001201430BEB6408608A
:0700C3000302000D0200031F
:03000000020137C3
:0C013700787FE4F6D8FD7581110200030A
:1000CA00BC000BBE0029EF8DF084FFADF022E4CC1A
:1000DA00F875F008EF2FFFEE33FEEC33FCEE9DECE3
:1000EA00984005FCEE9DFE0FD5F0E9E4CEFD22ED29
:1000FA00F8F5F0EE8420D21CFEADF075F008EF2F73
:10010A00FFED33FD4007985006D5F0F222C398FD63
:05011A000FD5F0EA2200
:00000001FF
