:10012300C0F9A4B0999282F880908883C6A1868E84
:0B013F00EF1FAC0670011E4C70F62292
:10002600E4F50975800FE580640F60747FE87E0350
:1000360012013FE580640F6067AF80EF24F5601022
:1000460024FE601114601324077012E4F508800D75
:10005600750801800875080280037508037580F02D
:10006600AF80EF2450601124E0601124F060112469
:10007600707013850808800E740480067408800268
:10008600740C2508F508C3E5096480948A5011E5C7
:100096008064F0600B7FE87E0312013F050980E66D
:0100A6002237
:10010D00759850758920758780758DFD758BFDD21D
:06011D00AFD2ACD28E222D
:1000030012010D120026E50890012393F59085084F
:08001300993099FDC29980EBC0
:030023000200A731
:0F00A700C0E0C083C082C0D075D000C000C007C9
:1000B600AF99C298EFB4100050409000C7F82828B6
:1000C600730200F90200F90200F90200F90200F9D0
:1000D6000200F90200F90200F90200F90200F90231
:1000E60000F90200F90200F90200F90200F9020023
:0A00F600F98000EF90012393F590CC
:0D010000D007D000D0D0D082D083D0E03224
:03000000020133C7
:0C013300787FE4F6D8FD75810902000316
:00000001FF
