:10009700FEFDFBF7EFDFBF7F3F065B4F666D7D071A
:0800A7007F6F777C395E7971EF
:0B00BB00EF1FAC0670011E4C70F62217
:02000300A9074B
:10000500E4FBC3ED6480F8EB6480985044E4F5901C
:10001500D281C281E9FF3395E0FEEBF5823395E0AD
:10002500F583E5822FFFE5833EFE74972FF58274F5
:10003500003EF583E493F590D280C28074082BF8D6
:10004500E6F590D281C2817FC87E001200BB0B808D
:01005500B1F9
:010056002287
:100057000511E51170020510B4F41CE510B4011781
:10006700E4F510F5110513E51370020512640A454E
:10007700127004F512F513749F2513F58274003579
:1000870012F583E493F5087D017F0212000380C017
:030000000200AF4C
:0C00AF00787FE4F6D8FD7581130200573D
:00000001FF
