:10007100FEFDFBF7EFDFBF7F3F065B4F666D7D0740
:080081007F6F777C395E797115
:0B009500EF1FAC0670011E4C70F6223D
:10000300E4FBFA74712BF58274003AF583E493F5FB
:1000130090D280C280E50B2BFFE50A3AFE74792F5C
:10002300F58274003EF583E493F590D281C2817F1B
:10003300C87E001200950BBB00010A0509E5097093
:10004300020508EB64084A7002FAFBE509B4F4B34D
:10005300E508B401AEE4F508F509050BE50B7002FC
:0E006300050A6409450A709BF50AF50B8095A5
:0300000002008972
:0C008900787FE4F6D8FD75810B020003BF
:00000001FF
