:10018500FEFDFBF7EFDFBF7F3F065B4F666D7D072B
:080195007F6F777C395E797100
:0B01A900EF1FAC0670011E4C70F62228
:02013100A9071C
:10013300E4FBC3ED6480F8EB6480985044E4F590ED
:10014300D281C281E9FF3395E0FEEBF5823395E07E
:10015300F583E5822FFFE5833EFE74852FF58274D8
:10016300013EF583E493F590D280C28074082BF8A6
:10017300E6F590D281C2817F0A7E001201A90B802D
:01018300B1CA
:010184002258
:100003000511E51170020510640A45107019F51009
:10001300F5110513E51370020512B4100AE512B4C5
:100023002705E4F512F513AE12AF137C037DE81236
:1000330000A6748D2FF58274013EF583E493F508D1
:10004300AE12AF137C007D641200A67C007D0A1201
:1000530000A6748D2DF58274013CF583E493F509B4
:10006300AE12AF137C007D0A1200A67C007D0A123B
:1000730000A6748D2DF58274013CF583E493F50A93
:10008300AE12AF137C007D0A1200A6748D2DF5828B
:1000930074013CF583E493F50B7D047F0212013177
:0300A30002000355
:0300000002019D5D
:0C019D00787FE4F6D8FD758113020003A2
:1000A600C2D5EC30E709B2D5E4C39DFDE49CFCEE75
:1000B60030E715B2D5E4C39FFFE49EFE1200DCC311
:1000C600E49DFDE49CFC80031200DC30D507C3E40C
:0600D6009FFFE49EFE22E4
:1000DC00BC000BBE0029EF8DF084FFADF022E4CC08
:1000EC00F875F008EF2FFFEE33FEEC33FCEE9DECD1
:1000FC00984005FCEE9DFE0FD5F0E9E4CEFD22ED17
:10010C00F8F5F0EE8420D21CFEADF075F008EF2F60
:10011C00FFED33FD4007985006D5F0F222C398FD51
:05012C000FD5F0EA22EE
:00000001FF
