:100080003F065B4F666D7D077F6F777C395E7971C8
:0700AA00AE071FEE70FA2201
:10000300E4F50975900FE590640F60707FE81200C6
:10001300AAE590640F6065AF90EF24F5601024FEAD
:10002300601114601324077012E4F508800D75083D
:1000330001800875080280037508037590F0AF907E
:10004300EF2450601124E0601124F06011247070DB
:1000530013850808800E7404800674088002740CEB
:100063002508F508C3E509648094B2500FE5906450
:0C007300F060097FE81200AA050980E88F
:01007F00225E
:0E009000120003E50890008093F4F58080F2E2
:0300000002009E5D
:0C009E00787FE4F6D8FD7581090200901F
:00000001FF
