:10006E003F065B4F666D7D077F6F777C395E7971DA
:01007E000081
:03009000DFFE226E
:10000300E4FEEEB40800504D900012F82828730265
:10001300002A02002E02003602003A0200420200C9
:100023004602004E020052C2A28002D2A2C2A3C262
:10003300A48022C2A28002D2A2D2A3C2A48016C2EA
:10004300A28002D2A2C2A3D2A4800AC2A28002D2F8
:10005300A2D2A3D2A4EE90006E93F5807F64120027
:0A00630090E4F5800EEE640870983A
:01006D002270
:05008B0012000380FBE0
:0300000002007F7C
:0C007F00787FE4F6D8FD75810702008B45
:00000001FF
