:1001BB00FEFDFBF7EFDFBF7F3F065B4F666D7D07F5
:0801CB007F6F777C395E7971CA
:0B01DF00EF1FAC0670011E4C70F622F2
:02016700A907E6
:10016900E4FBC3ED6480F8EB6480985044E4F590B7
:10017900D281C281E9FF3395E0FEEBF5823395E048
:10018900F583E5822FFFE5833EFE74BB2FF582746C
:10019900013EF583E493F590D280C28074082BF870
:1001A900E6F590D281C2817F647E001201DF0B8067
:0101B900B194
:0101BA002222
:100003000511E51170020510640A45107019F51009
:10001300F5110513E51370020512B4100AE512B4C5
:100023002705E4F512F513C3E51394E8E51264809C
:1000330094835005E4F5088019AE12AF137C037D59
:10004300E81200DC74C32FF58274013EF583E49358
:10005300F508C3E5139464E512648094805005E4C5
:10006300F5098020AE12AF137C007D641200DC7CA6
:10007300007D0A1200DC74C32DF58274013CF58304
:10008300E493F509C3E513940AE512648094805060
:1000930005E4F50A8020AE12AF137C007D0A12003E
:1000A300DC7C007D0A1200DC74C32DF58274013CF4
:1000B300F583E493F50AAE12AF137C007D0A1200B8
:1000C300DC74C32DF58274013CF583E493F50B7D59
:0900D300047F0212016702000320
:030000000201D327
:0C01D300787FE4F6D8FD7581130200036C
:1000DC00C2D5EC30E709B2D5E4C39DFDE49CFCEE3F
:1000EC0030E715B2D5E4C39FFFE49EFE120112C3A4
:1000FC00E49DFDE49CFC800312011230D507C3E49F
:06010C009FFFE49EFE22AD
:10011200BC000BBE0029EF8DF084FFADF022E4CCD1
:10012200F875F008EF2FFFEE33FEEC33FCEE9DEC9A
:10013200984005FCEE9DFE0FD5F0E9E4CEFD22EDE0
:10014200F8F5F0EE8420D21CFEADF075F008EF2F2A
:10015200FFED33FD4007985006D5F0F222C398FD1B
:050162000FD5F0EA22B8
:00000001FF
