:1001A8004C4344313630322D2D434C4F434B0030B5
:0A01B8003132333435363738393A26
:10018E00080C00000A00000A00000109000114001A
:09019E00010B00010A0001080137
:07014C001201C27F147E00C6
:10015300D3EF9400EE940040147D0A7C00ED1D70F3
:0D016300011CED4C70F7EF1F70E61E80E3ED
:01017000226C
:1001C2008F80C2A4C2A67F0A7E00120153D2A67FEC
:0901D2000A7E00120153C2A622AC
:1001DB008F80D2A4C2A67F0A7E00120153D2A67FC3
:0901EB000A7E00120153C2A62293
:10017100C2A57F0112014C7F3812014C7F0C120184
:0D0181004C7F061201C27F147E0002015364
:1001F400758901758C9E758A58D2AFD2A9D2A8D2BE
:0602040088D2B8D28C2262
:03000B0002010FE0
:10010F00C0E0C0D0750800758C9E758A580509E54A
:10011F0009642870237508010514F509E514B43C2A
:10012F0017050B751400E50BB43C0D050A750B0094
:0D013F00E50AB41803750A00D0D0D0E032F4
:03000300020006F2
:03000600B28C3287
:10009A001201717F8012014CE4FBEB9001A893FFDF
:1000AA001201DB12014F0BBB0FF01201F4E508B489
:1000BA0001FBE50A75F00A84F50CE50A75F00A8475
:1000CA0085F00DE50B75F00A84F50FE50B75F00A5E
:1000DA008485F010E51475F00A84F512E51475F0BC
:1000EA000A8485F0137FC412014CE4FBEBC3940825
:1000FA0050BB740C2BF8E69001B793FF1201DB1288
:05010A00014F0B80E72E
:0300000002000EED
:0C000E00787FE4F6D8FD758114020055DF
:10001A0002009AE493A3F8E493A34003F68001F262
:10002A0008DFF48029E493A3F85407240CC8C333E7
:10003A00C4540F4420C8834004F456800146F6DFB6
:10004A00E4800B010204081020408090018EE47EB7
:10005A00019360BCA3FF543F30E509541FFEE493AB
:10006A00A360010ECF54C025E060A840B8E493A372
:10007A00FAE493A3F8E493A3C8C582C8CAC583CA9D
:10008A00F0A3C8C582C8CAC583CADFE9DEE780BE55
:0101A7000057
:00000001FF
