:1000D300C0F9A4B0999282F880908883C6A1868ED5
:0400F2000208000000
:0F00E300438901E4F58CF58AD2AFD2A9D28C22E1
:050003001200E380FE85
:03000B0002009A56
:10009A00C0E0C083C082C0D0758C00758A0074D35A
:1000AA002509F58274003508F583E493F58005097E
:1000BA00E50970020508641145087004F508F50998
:0900CA00D0D0D082D083D0E03206
:0300000002000EED
:0C000E00787FE4F6D8FD758109020055EA
:10001A00020003E493A3F8E493A34003F68001F2F9
:10002A0008DFF48029E493A3F85407240CC8C333E7
:10003A00C4540F4420C8834004F456800146F6DFB6
:10004A00E4800B01020408102040809000F2E47E54
:10005A00019360BCA3FF543F30E509541FFEE493AB
:10006A00A360010ECF54C025E060A840B8E493A372
:10007A00FAE493A3F8E493A3C8C582C8CAC583CA9D
:10008A00F0A3C8C582C8CAC583CADFE9DEE780BE55
:0100F6000009
:00000001FF
