:10019500FEFDFBF7EFDFBF7F3F065B4F666D7D071B
:0801A5007F6F777C395E7971F0
:0B01B900EF1FAC0670011E4C70F62218
:02014100A9070C
:10014300E4FBC3ED6480F8EB6480985044E4F590DD
:10015300D281C281E9FF3395E0FEEBF5823395E06E
:10016300F583E5822FFFE5833EFE74952FF58274B8
:10017300013EF583E493F590D280C28074082BF896
:10018300E6F590D281C2817F647E001201B90B80B3
:01019300B1BA
:010194002248
:1000030075122775130F0511E51170020510640AA7
:1000130045107021F510F511D3E5139400E5126432
:10002300809480400AE5131513700A151280067533
:10003300122775130FAE12AF137C037DE81200B6BF
:10004300749D2FF58274013EF583E493F508AE1297
:10005300AF137C007D641200B67C007D0A1200B6EB
:10006300749D2DF58274013CF583E493F509AE127A
:10007300AF137C007D0A1200B67C007D0A1200B625
:10008300749D2DF58274013CF583E4934480F50A55
:10009300AE12AF137C007D0A1200B6749D2DF5825B
:1000A30074013CF583E493F50B7D047F0212014157
:0300B3000200093F
:030000000201AD4D
:0C01AD00787FE4F6D8FD75811302000392
:1000B600C2D5EC30E709B2D5E4C39DFDE49CFCEE65
:1000C60030E715B2D5E4C39FFFE49EFE1200ECC3F1
:1000D600E49DFDE49CFC80031200EC30D507C3E4EC
:0600E6009FFFE49EFE22D4
:1000EC00BC000BBE0029EF8DF084FFADF022E4CCF8
:1000FC00F875F008EF2FFFEE33FEEC33FCEE9DECC1
:10010C00984005FCEE9DFE0FD5F0E9E4CEFD22ED06
:10011C00F8F5F0EE8420D21CFEADF075F008EF2F50
:10012C00FFED33FD4007985006D5F0F222C398FD41
:05013C000FD5F0EA22DE
:00000001FF
