:1001EF003F065B4F666D7D077F6FFEFDFBF7EFDF11
:0201FF00BF7FC0
:0A021D00EF1F70011E144E70F7224F
:1001B500E4FDFCE4F580D2A0C2A074F92DF58274AB
:1001C500013CF583E493F580D2A1C2A174082DF812
:1001D500E6F580D2A0C2A07FC87E0012021D0DBD2B
:0901E50000010CED64084C70CA25
:0101EE0022EE
:10020100758901758C9E758A58D2AFD2A9D28C227C
:03000B0002000EE2
:10000E00C0E0C0F0C083C082C0D075D000C000C0B8
:10001E0004C005C006C007758C9E758A581201B5BE
:10002E000515E515700205146428451460030201D8
:10003E0015F514F5150517E51770020516643C4500
:10004E00167028F516F5170513E5137002051264E0
:10005E003C45127016F512F5130511E511700205E7
:10006E0010641845107004F510F511AE10AF117C28
:10007E00007D0A12012A74EF2FF58274013EF5837A
:10008E00E493F508AE10AF117C007D0A12012A74BC
:10009E00EF2DF58274013CF583E493F509750A4062
:1000AE00AE12AF137C007D0A12012A74EF2FF58277
:1000BE0074013EF583E493F50BAE12AF137C007D15
:1000CE000A12012A74EF2DF58274013CF583E49334
:1000DE00F50C750D40AE16AF177C007D0A12012A85
:1000EE0074EF2FF58274013EF583E493F50EAE1690
:1000FE00AF177C007D0A12012A74EF2DF582740170
:10010E003CF583E493F50FD007D006D005D004D08C
:0C011E0000D0D0D082D083D0F0D0E032EE
:0500030012020180FE65
:03000000020211E8
:0C021100787FE4F6D8FD75811702000329
:10012A00C2D5EC30E709B2D5E4C39DFDE49CFCEEF0
:10013A0030E715B2D5E4C39FFFE49EFE120160C307
:10014A00E49DFDE49CFC800312016030D507C3E402
:06015A009FFFE49EFE225F
:10016000BC000BBE0029EF8DF084FFADF022E4CC83
:10017000F875F008EF2FFFEE33FEEC33FCEE9DEC4C
:10018000984005FCEE9DFE0FD5F0E9E4CEFD22ED92
:10019000F8F5F0EE8420D21CFEADF075F008EF2FDC
:1001A000FFED33FD4007985006D5F0F222C398FDCD
:0501B0000FD5F0EA226A
:00000001FF
