:10014100FEFDFBF7EFDFBF7F3F065B4F666D7D076F
:080151007F6F777C395E797144
:0B016500EF1FAC0670011E4C70F6226C
:0200ED00A90761
:1000EF00E4FBC3ED6480F8EB6480985044E4F59032
:1000FF00D281C281E9FF3395E0FEEBF5823395E0C3
:10010F00F583E5822FFFE5833EFE74412FF5827460
:10011F00013EF583E493F590D280C28074082BF8EA
:10012F00E6F590D281C2817FC87E001201650B80F7
:01013F00B10E
:01014000229C
:10008E000511E51170020510646445107016F51027
:10009E00F5110513E5137002051264644512700420
:1000AE00F512F513AE12AF137C007D0A1200037425
:1000BE00492FF58274013EF583E493F508AE12AF35
:1000CE00137C007D0A12000374492DF58274013CE5
:0F00DE00F583E493F5097D027F021200ED80A106
:03000000020159A1
:0C015900787FE4F6D8FD75811302008E5B
:10000300C2D5EC30E709B2D5E4C39DFDE49CFCEE18
:1000130030E715B2D5E4C39FFFE49EFE120039C357
:10002300E49DFDE49CFC800312003930D507C3E452
:060033009FFFE49EFE2287
:10003900BC000BBE0029EF8DF084FFADF022E4CCAB
:10004900F875F008EF2FFFEE33FEEC33FCEE9DEC74
:10005900984005FCEE9DFE0FD5F0E9E4CEFD22EDBA
:10006900F8F5F0EE8420D21CFEADF075F008EF2F04
:10007900FFED33FD4007985006D5F0F222C398FDF5
:050089000FD5F0EA2292
:00000001FF
