:100110001009C0F9A4B0999282F880908883C6A192
:02012000868EC9
:0A013000EF1F70011E144E70F7223D
:10008F00E4F5197590F0E590640F60747FE87E03D6
:10009F00120130E59064F06067AF90EF245060116B
:1000AF0024E0601224F0601324707012E4F50880CD
:1000BF000D75080180087508028003750803759097
:1000CF000FAF90EF24F9601824FC601024FE600835
:1000DF00147013850808800E74048006740880025B
:1000EF00740C2508F508C3E519648094B25011E526
:1000FF0090640F600B7FE87E03120130051980E6D4
:01010F0022CD
:0D01230012008F74092508F8E6F58080F3BE
:03000000020003F8
:0C000300787FE4F6D8FD75811902004AF0
:10000F00020123E493A3F8E493A34003F68001F2E3
:10001F0008DFF48029E493A3F85407240CC8C333F2
:10002F00C4540F4420C8834004F456800146F6DFC1
:10003F00E4800B0102040810204080900110E47E40
:10004F00019360BCA3FF543F30E509541FFEE493B6
:10005F00A360010ECF54C025E060A840B8E493A37D
:10006F00FAE493A3F8E493A3C8C582C8CAC583CAA8
:10007F00F0A3C8C582C8CAC583CADFE9DEE780BE60
:0101220000DC
:00000001FF
